:1001D00051000020202020B5E7D7D3BCBCCAF520B1
:1001E0002020200051001120202020535443384863
:0801F000384B202020202000E4
:10000300E4900022F0F594F593F596F595F5B2F5A5
:10001300B1F5B4F5B3D2C5D2C612021C7F8012016A
:10002300F97F4112025B1202771202777F9012016D
:10003300F9E4900022F0900022E0FFC39410501DD9
:1000430074112FF582E43400F583E0FF12025B1292
:100053000277120277900022E004F080D97F8812A1
:1000630001F9E4900022F0900022E0FFC3941050C5
:100073001D74002FF582E43400F583E0FF12025B68
:10008300120277120277900022E004F080D97F9861
:100093001201F9E4900022F0900022E0FFC39410D3
:1000A300501D74112FF582E43400F583E0FF120232
:1000B3005B120277120277900022E004F080D9E409
:1000C300900022F0120277900022E004F0E0C39443
:1000D300C840F1E4900022F0120277900022E0047D
:1000E300F0E0C394C840F1E4900022F0120277904C
:1000F3000022E004F0E0C394C840F1E4900022F051
:10010300120277900022E004F0E0C394C840F1E4C7
:10011300900022F0120277900022E004F0E0C394F2
:10012300C840F1E4900022F0120277900022E0042C
:10013300F0E0C394C840F112028FD2C512028F803F
:01014300F6C5
:10023E00C2B5D2B6C2B7D2B7D2C500000000AF80E9
:0C024E00C2C5C2B700000000EF20E7E4CA
:01025A002281
:10021C00C2C3120277D2C31202777F301201F912D5
:10022C0002777F0C1201F91202777F011201F90299
:02023C00027747
:1001F900AE0712023EC2B5C2B6C2B700D2B70000FE
:100209000000AF068F8000000000D2B70000000098
:03021900C2B72247
:10025B00AE0712023ED2B5C2B6C2B7D2B70000008B
:0C026B0000AF068F8000000000C2B72228
:10027700E4FFFE900023F0A3F00000000FBF000191
:070287000EBE04F5BF47F2B3
:01028E00224D
:10028F00E4FFFE900023F0A3F0000FBF00010EEF7C
:05029F0064094E70F43B
:0102A4002237
:03000000020144B6
:0C014400787FE4F6D8FD75810702018B7E
:10015000020003E493A3F8E493A34003F68001F2C2
:1001600008DFF48029E493A3F85407240CC8C333B0
:10017000C4540F4420C8834004F456800146F6DF7F
:10018000E4800B01020408102040809001D0E47E3E
:10019000019360BCA3FF543F30E509541FFEE49374
:1001A000A360010ECF54C025E060A840B8E493A33B
:1001B000FAE493A3F8E493A3C8C582C8CAC583CA66
:1001C000F0A3C8C582C8CAC583CADFE9DEE780BE1E
:0101F8000006
:00000001FF
